:100000000C942A000C9447000C9447000C94470071
:100010000C9447000C9449000C9447000C94470042
:100020000C9447000C9447000C9447000C94470034
:100030000C9447000C9447000C9447000C94470024
:100040000C9447000C9447000C9447000C94470014
:100050000C94470011241FBECFE5D8E0DEBFCDBF12
:1000600010E0A0E6B0E0E0EAF9E002C005900D92F1
:10007000A239B107D9F710E0A2E9B0E001C01D92A2
:10008000A43EB107E1F70E94A6020C94CE040C94A2
:1000900000001F920F920FB60F9211248F939F931F
:1000A000AF93BF93DF93CF93CDB7DEB7809192002C
:1000B00090919300A0919400B09195000196A11D9C
:1000C000B11D8093920090939300A0939400B093FD
:1000D0009500CF91DF91BF91AF919F918F910F903C
:1000E0000FBE0F901F901895DF93CF93CDB7DEB75B
:1000F00082E490E022E430E0F90120812860FC01F4
:10010000208389E590E029E530E0F9012081206431
:10011000FC01208384E490E0FC01808184E490E091
:10012000FC01108285E490E025E430E0F9012081B3
:100130002160FC012083CF91DF910895EF92FF921F
:100140000F931F93DF93CF9300D000D0CDB7DEB7CE
:100150008091920090919300A0919400B0919500AD
:100160009C01AD01220F331F441F551F220F331F67
:10017000441F551F220F331F441F551F79018A0149
:10018000E81AF90A0A0B1B0BD801C70189839A8365
:10019000AB83BC8389819A81AB81BC81BC01CD01D9
:1001A0000F900F900F900F90CF91DF911F910F91B3
:1001B000FF90EF900895DF93CF93CDB7DEB72C97E4
:1001C0000FB6F894DEBF0FBECDBF69877A878B87E5
:1001D0009C870E949E00DC01CB0189839A83AB83BC
:1001E000BC831D821E821F8218860E949E00DC0135
:1001F000CB018D839E83AF83B8872D813E814F8154
:10020000588589819A81AB81BC81281B390B4A0BA7
:100210005B0B89859A85AB85BC85281739074A070A
:100220005B0718F32C960FB6F894DEBF0FBECDBF58
:10023000CF91DF910895DF93CF93CDB7DEB787E3FA
:1002400090E027E330E0F90120812860FC01208361
:1002500083E590E023E530E0F90120812064FC0192
:10026000208383E590E023E530E0F9012081277FBA
:10027000FC01208383E590E023E530E0F901208153
:100280002062FC01208383E590E023E530E0F90162
:1002900020812F7EFC01208383E590E023E530E080
:1002A000F90120812E7FFC01208383E590E023E586
:1002B00030E0F90120812D7FFC01208383E590E06F
:1002C00023E530E0F90120812460FC01208382E5F0
:1002D00090E0FC01808182E590E0FC011082CF91EA
:1002E000DF910895DF93CF930F92CDB7DEB7898367
:1002F0008CE590E02981FC0120830F90CF91DF9164
:100300000895DF93CF9300D0CDB7DEB71A8219825C
:100310001A82198255C089819A81880F991F815943
:100320009F4FFC018081918129813A81220F331FE7
:1003300021593F4FF90120813181F9012081622F3C
:1003400029813A8126593F4FF9012081422F50E0FF
:1003500021E030E002C0220F331F4A95E2F7262B3E
:10036000FC01208389819A81880F991F805A9F4FB1
:10037000FC018081918129813A81220F331F205A0B
:100380003F4FF90120813181F9012081622F2981BC
:100390003A8126593F4FF9012081422F50E021E058
:1003A00030E0042E02C0220F331F0A94E2F720959A
:1003B0002623FC01208389819A8101969A8389836F
:1003C00089819A81853091050CF4A5CF0F900F900B
:1003D000CF91DF910895DF93CF9300D000D0CDB7B8
:1003E000DEB769837A838B839C8389819A81880FA6
:1003F000991F805A9F4FFC018081918129813A8108
:10040000220F331F205A3F4FF90120813181F9011A
:100410002081622F29813A8126593F4FF90120819D
:10042000422F50E021E030E0042E02C0220F331FA3
:100430000A94E2F7262BFC0120830F900F900F9077
:100440000F90CF91DF910895DF93CF9300D000D02C
:10045000CDB7DEB769837A838B839C8389819A8148
:10046000880F991F805A9F4FFC01808191812981BB
:100470003A81220F331F205A3F4FF90120813181E9
:10048000F9012081622F29813A8126593F4FF901D4
:100490002081422F50E021E030E0042E02C0220FE4
:1004A000331F0A94E2F720952623FC0120830F9046
:1004B0000F900F900F90CF91DF910895DF93CF931E
:1004C00000D000D0CDB7DEB769837A838B839C835D
:1004D00089819A81880F991F805A9F4FFC018081E2
:1004E000918129813A81220F331F205A3F4FF90110
:1004F00020813181F9012081622F29813A81265999
:100500003F4FF9012081422F50E021E030E0042EDE
:1005100002C0220F331F0A94E2F72627FC01208332
:100520000F900F900F900F90CF91DF910895DF9370
:10053000CF93CDB7DEB70E9481010E9474000E9464
:100540001B010E94BB02CF91DF910895DF93CF93EF
:10055000CDB7DEB70E9497027894FFCFDF93CF9399
:100560000F92CDB7DEB7898389810E9472010F9007
:10057000CF91DF910895DF93CF9300D000D000D0CA
:10058000CDB7DEB783E08B8382E08C8388E28D83F6
:100590008FE08E8380918D00882F90E0A0E0B0E006
:1005A000BC01CD010E94DB0087E390E027E330E04F
:1005B000F90120812460FC01208387E390E027E398
:1005C00030E0F90120812160FC01208380919100BD
:1005D0000E94AE020E944F0360E070E0CB010E94D7
:1005E000EB011A82198212C08B810E943C04809117
:1005F0008E00882F90E0A0E0B0E0BC01CD010E9409
:10060000DB0089819A8101969A83898389819A8105
:10061000833091054CF38C810E943C0461E070E0D2
:1006200080E090E00E94EB0180918E00882F90E0A6
:10063000A0E0B0E0BC01CD010E94DB001092900070
:100640008D810E943C0462E070E080E090E00E94B6
:10065000EB0180918E00882F90E0A0E0B0E0BC011B
:10066000CD010E94DB008E810E943C0463E070E0BB
:1006700080E090E00E94EB0180918E00882F90E056
:10068000A0E0B0E0BC01CD010E94DB0026960FB6D1
:10069000F894DEBF0FBECDBFCF91DF910895DF93F9
:1006A000CF9300D0CDB7DEB788E390E028E330E009
:1006B000F90120812460FC01208387E390E027E397
:1006C00030E0F90120812260FC01208388E390E082
:1006D00028E330E0F90120812D7FFC0120831A827C
:1006E000198255C089819A81880F991F8B579F4F16
:1006F000FC018081918129813A81220F331F2B5780
:100700003F4FF90120813181F9012081622F298138
:100710003A812F573F4FF9012081422F50E021E0CD
:1007200030E002C0220F331F4A95E2F7262BFC016E
:10073000208389819A81880F991F87589F4FFC01D8
:100740008081918129813A81220F331F27583F4FA1
:10075000F90120813181F9012081622F29813A81BB
:100760002F573F4FF9012081422F50E021E030E028
:10077000042E02C0220F331F0A94E2F7209526238D
:10078000FC01208389819A8101969A8389838981DA
:100790009A81843091050CF4A5CF81E080938F007D
:1007A0000F900F90CF91DF910895DF93CF930F9229
:1007B000CDB7DEB7898390918F0081E089278823A8
:1007C00011F00E944F0388E390E028E330E0F90144
:1007D00020812460FC01208388E390E028E330E05E
:1007E000F90120812160FC01208380918E00882FF7
:1007F00090E0A0E0B0E0BC01CD010E94DB0088E306
:1008000090E028E330E0F90120812E7FFC01208375
:1008100080918E00882F90E0A0E0B0E0BC01CD0177
:100820000E94DB0088E390E028E330E0F9012081BA
:100830002160FC01208380918E00882F90E0A0E051
:10084000B0E0BC01CD010E94DB0088E390E028E32A
:1008500030E0F90120812E7FFC01208380918E0001
:10086000882F90E0A0E0B0E0BC01CD010E94DB0049
:100870000F90CF91DF910895DF93CF9300D00F9227
:10088000CDB7DEB78B8390918F0081E089278823D5
:1008900011F00E944F0388E390E028E330E0F90173
:1008A00020812B7FFC0120838B8185958595859503
:1008B0008595898389818F7089838B818F708A83E5
:1008C0009091900081E08927882389F18BE390E063
:1008D0002BE330E0F9012081322F2981232BFC0109
:1008E000208388E390E028E330E0F9012081216053
:1008F000FC01208380918E00882F90E0A0E0B0E082
:10090000BC01CD010E94DB0088E390E028E330E0E9
:10091000F90120812E7FFC01208380918E00882F99
:1009200090E0A0E0B0E0BC01CD010E94DB008BE3D1
:1009300090E02BE330E0F9012081322F2A81232B34
:10094000FC01208388E390E028E330E0F901208176
:100950002160FC01208380918E00882F90E0A0E030
:10096000B0E0BC01CD010E94DB0088E390E028E309
:1009700030E0F90120812E7FFC01208380918E00E0
:10098000882F90E0A0E0B0E0BC01CD010E94DB0028
:100990000F900F900F90CF91DF910895F894FFCFB3
:1009A0003B003B003B003B00380004050607043ACF
:1009B000003A003A003A0037003B003B003B003B66
:1009C00000030201003A003A003A003A00320801FE
:0209D0000128FC
:00000001FF
